:1000000030C80000653200009B72000051320000D1
:100010005132000051320000513200000000000057
:100020000000000000000000000000004533000058
:100030005132000000000000ED3200009136000057
:10004000993400009934000099340000993400007C
:10005000993400009934000099340000993400006C
:10006000993400009934000099340000993400005C
:10007000993400009934000099340000993400004C
:10008000993400009934000099340000993400003C
:10009000993400009934000099340000993400002C
:1000A000993400009934000099340000993400001C
:1000B000993400009934000099340000993400000C
:1000C00099340000993400009934000099340000FC
:1000D00099340000993400009934000099340000EC
:1000E00099340000993400009934000099340000DC
:1000F00099340000993400009934000099340000CC
:1001000099340000993400009934000099340000BB
:1001100099340000993400009934000099340000AB
:10012000993400009934000099340000993400009B
:10013000993400009934000099340000993400008B
:1001400081F0004102E000BF83F0004330B54FEA88
:1001500041044FEA430594EA050F08BF90EA020FF5
:100160001FBF54EA000C55EA020C7FEA645C7FEA88
:10017000655C00F0E2804FEA5454D4EB5555B8BFAB
:100180006D420CDD2C4480EA020281EA030382EA1C
:10019000000083EA010180EA020281EA0303362DAE
:1001A00088BF30BD11F0004F4FEA01314FF4801C81
:1001B0004CEA113102D0404261EB410113F0004F93
:1001C0004FEA03334CEA133302D0524263EB43034A
:1001D00094EA050F00F0A780A4F10104D5F1200EE8
:1001E0000DDB02FA0EFC22FA05F2801841F1000143
:1001F00003FA0EF2801843FA05F359410EE0A5F117
:1002000020050EF1200E012A03FA0EFC28BF4CF047
:10021000020C43FA05F3C01851EBE37101F00045FD
:1002200007D54FF0000EDCF1000C7EEB00006EEB0A
:100230000101B1F5801F1BD3B1F5001F0CD3490894
:100240005FEA30004FEA3C0C04F101044FEA4452EB
:1002500012F5800F80F09A80BCF1004F08BF5FEA72
:10026000500C50F1000041EB045141EA050130BD52
:100270005FEA4C0C404141EB0101013C28BFB1F564
:10028000801FE9D291F0000F04BF01460020B1FAAF
:1002900081F308BF2033A3F10B03B3F120020CDA82
:1002A0000C3208DD02F1140CC2F10C0201FA0CF060
:1002B00021FA02F10CE002F11402D8BFC2F1200CC5
:1002C00001FA02F120FA0CFCDCBF41EA0C0190407B
:1002D000E41AA2BF01EB0451294330BD6FEA0404C4
:1002E0001F3C1CDA0C340EDC04F11404C4F12002AF
:1002F00020FA04F001FA02F340EA030021FA04F3C1
:1003000045EA030130BDC4F10C04C4F1200220FA17
:1003100002F001FA04F340EA0300294630BD21FA55
:1003200004F0294630BD94F0000F83F4801306BF1B
:1003300081F480110134013D4EE77FEA645C18BF0F
:100340007FEA655C29D094EA050F08BF90EA020FA6
:1003500005D054EA000C04BF1946104630BD91EA9E
:10036000030F1EBF0021002030BD5FEA545C05D1A1
:100370004000494128BF41F0004130BD14F58004E0
:100380003CBF01F5801130BD01F0004545F0FE4154
:1003900041F470014FF0000030BD7FEA645C1ABF89
:1003A000194610467FEA655C1CBF0B46024650EAC0
:1003B000013406BF52EA033591EA030F41F40021EC
:1003C00030BD00BF90F0000F04BF0021704730B572
:1003D0004FF4806404F132044FF000054FF0000147
:1003E00050E700BF90F0000F04BF0021704730B508
:1003F0004FF4806404F1320410F0004548BF4042DD
:100400004FF000013EE700BF42004FEAE2014FEA31
:1004100031014FEA02701FBF12F07F4393F07F4F0C
:1004200081F06051704732F07F4208BF704793F00F
:100430007F4F04BF41F40021704730B54FF4607422
:1004400001F0004521F000411CE700BF50EA010225
:1004500008BF704730B54FF000050AE050EA0102CE
:1004600008BF704730B511F0004502D5404261EB3E
:1004700041014FF4806404F132045FEA915C3FF47F
:10048000D8AE4FF003025FEADC0C18BF03325FEA1C
:10049000DC0C18BF033202EBDC02C2F1200300FACD
:1004A00003FC20FA02F001FA03FE40EA0E0021FAF2
:1004B00002F11444BDE600BF53B94AB9002908BF90
:1004C00000281CBF4FF0FF314FF0FF3000F00CB898
:1004D000ADF1080C6DE904CE00F01AF8DDF804E087
:1004E000DDE9022304B07047704700BF10F8012B0C
:1004F00011F8013B012A28BF9A42F7D0D01A704761
:10050000034613F8012B002AFBD1181A0138704753
:100510002DE9F04786468C460846089E15467446E7
:100520001946002B40F0C2808542B2FA82F245D9CA
:100530004AB1C2F1200300FA02FC2EFA03F39540FF
:1005400043EA0C0C94404FEA154EA8B2BCFBFEF8EF
:10055000230C0EFB18CC08FB00F943EA0C43994529
:1005600028D9EB1808F1FF3704D2994502D9A8F130
:1005700002072B44A3EB0903A4B2B3FBFEFC0EFB62
:100580001C330CFB00F044EA0344A04214D92C199C
:100590000CF1FF3304D2A04202D9ACF102032C4487
:1005A000241A43EA07401EB1D4400023346073602C
:1005B000BDE8F0874746DDE76346F1E792BB431BA2
:1005C00001214FEA154EAFB2B3FBFEFC200C0EFB2F
:1005D0001C330CFB07F840EA0343984562D9EB183B
:1005E0000CF1FF3004D2984502D9ACF102002B4443
:1005F000A3EB0803A4B2B3FBFEFC0EFB1C330CFB05
:1006000007F744EA0344A7424ED92C190CF1FF33F3
:1006100004D2A74202D9ACF102032C44E41B43EA02
:100620000040C0E7C2F1200320FA03F1954090405A
:100630002EFA03F303434FEA154EAFB2B1FBFEFCB3
:100640000EFB1C10190C0CFB07F841EA0041884511
:1006500004FA02F422D969180CF1FF3004D288455B
:1006600002D9ACF102002944A1EB08019BB2B1FB15
:10067000FEFC0EFB1C110CFB07F743EA01439F42F3
:100680000ED9EB180CF1FF3104D29F4202D9ACF124
:1006900002012B44DB1B41EA004192E76046E3E79D
:1006A0006146F7E76046A3E76346B7E7834206D9AA
:1006B00016B9002108467BE7C6E900E0F9E7B3FA7E
:1006C00083F78FB9834201D3724508D8BEEB020489
:1006D00060EB030301209C461EB9002168E7384601
:1006E000FAE7C6E9004CF8E7C7F1200CBB4022FA54
:1006F0000CF41C432EFA0CF120FA0CF3B840014321
:100700004FEA14490EFA07F5B3FBF9F81FFA84FE15
:1007100009FB18300B0C08FB0EFA43EA00439A451C
:1007200002FA07F240D9E31808F1FF3004D29A45E3
:1007300002D9A8F102002344A3EB0A0389B2B3FB58
:10074000F9F809FB183308FB0EFE41EA03418E4518
:100750002CD9611808F1FF3304D28E4502D9A8F1D3
:100760000203214443EA0040A0FB0298A1EB0E01E2
:100770004145CE46434602D306D14D4504D2B9EB9E
:10078000020E68EB04030138002EA6D0B5EB0E0272
:1007900061EB030101FA0CFC22FA07F34CEA0303B4
:1007A000F940C6E9003198E74046C5E74346D9E736
:1007B000074A1168092905D81B6811681868054B94
:1007C00043F82100136804480133136005F0C3BDEA
:1007D00020AD0000ECAC00009CA5000038B5054D34
:1007E0002868144607F073FF03486C6005F0B3FDFA
:1007F000002038BDA8A200007CA5000098B500AF7D
:100800006C468AB06A460E4B53610E4BC2E9063302
:1008100040F2013313840C4B42F8103F0B48002385
:100820004FF4145101F062FFA546094883681B6824
:1008300013B10022114698470020BD4698BD00BF65
:10084000949100009F97000004000001B48B000009
:10085000408B000080B500AF8AB06A46084B5361F8
:10086000084BC2E90631084B1362084B42F8103FAF
:10087000074800234FF4215101F038FFBD4680BDE9
:10088000A991000082970000000201030400000209
:10089000B48B0000F8B50388012B00AF044627D1C4
:1008A00005798068012D1FD0022D1AD0F5B96E464A
:1008B00088B06C46254B6361FFF7A6FD002200233C
:1008C000FFF744FC22460423C4E9060142F8103F26
:1008D0001F482B464FF4035101F008FFB546BD46B3
:1008E000F8BD1C4A032127E01B4AFBE71B4AF9E736
:1008F0009A1E042A28D8DFE802F0030A0C250E000D
:100900000379174A1248032106F0FBFBE7E7154A73
:10091000E8E7154AE6E70321144A0D4805F019FDFA
:100920002179022905D0032905D0012908D1104ACF
:10093000D8E7104AD6E7104A054805F00AFDCEE789
:100940000E4ACFE70E4ACDE70E4ADBE7F9910000E9
:10095000B48B0000D7910000E791000020920000C6
:1009600034920000609200007F9200009F9200008D
:10097000C3920000DE920000F89200001393000082
:100980002D9300004F9300002DE9F04F4FF0FF33FF
:100990008DB04FF0FF32494805F0DFFC484A494826
:1009A000032105F0D6FC00230293474B01934749EE
:1009B000474A48484FF0FF33009309680E2303F07D
:1009C000CDF8054668B1444A034601213D4806F08A
:1009D00098FB424A3B4803210DB0BDE8F04F05F0BB
:1009E000B8BC3F4A3748DFF8D490DFF8F8800321DD
:1009F00005F0AFFC04F09CFA06460F4641F288323F
:100A00000023484605F0A9FC044600284DD10135D5
:100A1000D8F80430344A00932A48DFF8D0B02B4687
:100A2000032106F078FBD8F800A0D8F80430254858
:100A3000A3422AD82E4B2F491A880DF1100A50468E
:100A400000F016FB9AE80F0008AC84E80F002A4A71
:100A50002A49204605F018FE08B32748FFF71AFF79
:100A600004F066FA831B61EB07020C4647F2315132
:100A70008B4272F100028246C0D3214A1148032101
:100A800005F067FC56462746B8E71AF804300321FC
:100A900000935A46234606F03EFB0134C5E7194A47
:100AA0000848032105F055FCDAE710F10B0FD7D009
:100AB00010340CBF144A154AF2E700BF7CA50000B1
:100AC0006A930000B48B0000DD07000070AD0000E9
:100AD0009A93000028AD0000A7930000DC9300006B
:100AE0000A940000A8A20000379400006894000057
:100AF00020A3000020B00000E0AC0000788E0000D1
:100B00000495000079940000B9940000DF9400007F
:100B1000F0B589B004AF3C4BBB6007F10800062379
:100B20003B7302F009FF044658B1384A03460121DD
:100B3000374806F0E6FA4FF0FF3420461437BD463A
:100B4000F0BD344E344A32484FF0FF35032105F0F2
:100B500000FC324A3249334800954FF48013CDE906
:100B6000014406F04EFE391D304601F0FDFA2E4AD2
:100B700031681160CDE9014400957B682B4806F08F
:100B800040FE2B4D284607F078FB28B9294A20481B
:100B9000012105F0DEFBCEE7274A1D48032105F0C1
:100BA000D8FBAB685E68D6B9244A1948012105F024
:100BB000D0FB6C4688B004AA214B53610326214B1D
:100BC000936142F8106F124800234FF4C85101F0AE
:100BD0008DFDA546AB681B694BB91B4AD7E71B4A7D
:100BE000234601212846B0470028E2D0DCE7012255
:100BF0000F481146984704460028EED1144A04488D
:100C0000314605F0A6FB98E7C53900002A9500009B
:100C1000B48B000074AD000041950000B0A200004C
:100C20000000B09C7CAE0000B4AE000044AE0000FA
:100C3000408B000050950000689500007F950000F3
:100C40009C95000091970000B9950000B107000045
:100C5000D09500002DE9F043394F3A4D3A6885B000
:100C60001E46394B4FF00008CDE90083CDF80880CF
:100C70002B461432FF21012003F0B2F9044630B9AB
:100C8000324A3348012105F064FB002054E0314A28
:100C90002F48DFF8C490032105F05BFB204607F0E6
:100CA000D4FA396801F13003C9F80030486B0B6B96
:100CB000CA6B0290896B2046CDE90051414607F08E
:100CC0008AFA40B1254A2248012105F042FB20461C
:100CD00007F073FAD9E7D9F80030214A1C480321FC
:100CE00006F00FFA39681F4F01F144033B60886C2E
:100CF0004B6C0A6D0290C96C2046CDE90051012170
:100D000007F069FA054608B1174ADCE73B68174A5D
:100D10000F48032106F0F5F9154B164800953246A9
:100D2000214607F091F908B1134ACCE70848134A65
:100D3000032105F00EFB0F4805B0BDE8F08300BFAE
:100D400074AD000044AE0000FD070000E395000014
:100D5000B48B0000F99500001CAD00000B9600005C
:100D60002296000018AD00003B960000529600004D
:100D70007CAE000078AD00006B960000829600000B
:100D800038B5284A2848032105F0E3FAFFF7C0FEEA
:100D90000446B8B1254A2448012105F0DAFA24486E
:100DA00083681B6913B1002201219847214807F08D
:100DB00054F902F0E7FDBDE838401F4A1A48032104
:100DC00005F0C7BA1D4A1848032105F0C2FA1C4BAA
:100DD000224601212046FFF73DFF1A4B186008B953
:100DE000194AD8E7194A1048194D124C032105F049
:100DF000B0FA184805F0AFFA174805F0ACFA1748F2
:100E000005F0A9FA4FF0FF324FF0FF33284605F006
:100E1000A4FA0028F6D1D4F8AC00012107F0F3F9C8
:100E2000F0E700BF95960000B48B0000C29600006A
:100E3000408B000078AD000040970000E096000075
:100E40005508000070AD0000FA9600001F970000E2
:100E50009CA500008CA50000ACA500007CA50000AE
:100E6000F0B51F4D1F4A89B02846032105F071FADD
:100E70001D4B1E484FF029421A60FF21282207F01F
:100E800034FC1B4B00241C601A4B1B4A03212846D0
:100E900006F037F9002600276FF00703CDE902437B
:100EA000CDE90667CDE90044144B154904944FF48D
:100EB0008062144803F030FB6FF00803CDE9024371
:100EC000CDE90667CDE900440F4B104904944FF477
:100ED00080620F4803F020FB204609B0F0BD00BF40
:100EE000B48B00005397000014AD0000ECAC000080
:100EF00024AD0000408B000071970000810D0000C0
:100F000030B4000040A600008909000030B00000A5
:100F1000D0A5000010B5836804463BB9C368094AF0
:100F2000002B08BF1346E360002010BD03680122B8
:100F3000984710B9E368044AF2E7A368013BA3604D
:100F4000F3E700BFC0970000CE9700002DE9F34102
:100F500088460DF1070106461446FFF7DBFF0746FA
:100F600058B9B36823B10027384602B0BDE8F08114
:100F7000002CF8D001232370F5E79DF907309DF888
:100F80000750002B31DA05F07F0507240DF107012A
:100F90003046FFF7BFFF0028E5D09DF807301F2C33
:100FA00003F07F0224D93E2C06D8AAB1002D0ADA1C
:100FB000FF2B08D10734E9E762B1002D03DA012BDA
:100FC00001D13F2C11D0F3680B4A002B08BF134608
:100FD000F360C8E73F2CF6D11A0604F10704D5D414
:100FE000232C02D113F0700FEDD1C8F80050BBE7ED
:100FF000A2401543F0E700BFD797000030B5044684
:1010000085B0154662B3A9B90268164B9A4211D051
:10101000102D06D82A4669462046FFF7EFFF05B097
:1010200030BD102269462046FFF7E8FF0028F6D0C1
:10103000103DEDE7A368AB4207D2E3680A4A002BF4
:1010400008BF1346E3600020E9E723682A462046EC
:10105000984710B9E368054AF1E7A3685B1BA360F2
:101060000120DCE7A3650000C0970000CE970000D8
:1010700010B5034C82600022C0E90041C26010BD7F
:10108000A36500002DE9F341002506460F46A8465A
:101090002C460DF107013046FFF73CFF08B39DF8E1
:1010A00007C0A4F120030CF07F02C4F1200102FA72
:1010B00003F322FA01F10B43A2401CF0800F45EA32
:1010C000020543EA080804F1070402D1C7E9005801
:1010D00008E0462CDDD1F368044A002B08BF134614
:1010E000F360002002B0BDE8F08100BFD797000098
:1010F00013B50446052921D8DFE801F0030F1720B6
:10110000201E012201A92046FFF778FF18B19DF9A2
:101110000430002BF5DB02B010BD08220021204670
:1011200002B0BDE81040FFF769BF01A905F048FA19
:101130000028F0D0019AF1E70422EFE7C368034AE0
:10114000002B08BF1346C3600020E4E7E7970000C8
:1011500073B50D4601A9044605F032FA064660B1A2
:1011600094E80F0085E80F0001998A4209D2E368EC
:10117000064A002B08BF1346E3600026304602B043
:1011800070BDA960A3685B1AA360F7E7F997000038
:1011900070B5937D03F00F0386B0044615460B2B04
:1011A00000F25881DFE813F00C001D001D001D0047
:1011B0008F009B00A700CC00EC00EC00560128013A
:1011C0000139C9B2FD2906D8E368994A002B08BF46
:1011D0001346E36043E0E96906B0BDE8704005F0FE
:1011E00018BA0139C9B2FD29EED9022B31D102A9B1
:1011F000FFF748FF0646002831D06B8A082B07D13D
:10120000DDE90201EB69C3E90001304606B070BDBB
:10121000042B0CD1EA69029B1360DDE90201002274
:10122000914208BF9842F0D0E368824ACEE7022B91
:1012300004D1029BEA6913809BB2EEE7012B05D132
:10124000029BEA69137003F0FF03E6E7E3687A4A5A
:10125000BCE7032B05D102A905F0E8F970B9002617
:10126000D3E76946FFF70EFF0028F8D0DDE900322A
:10127000698A082918BFDA17CDE902326B8A082B70
:1012800006D1DDE90201EB69C3E900010126BCE7F3
:10129000042B0AD1EA69029B1360DDE90201DA1727
:1012A000914208BF9842BFD1F0E7022B04D1EA690E
:1012B000BDF908301380F0E7012BC7D1EA699DF929
:1012C00008301370E9E7052902D0FF297FF47CAFCD
:1012D000E969204606B0BDE8704005F0BCB90129B7
:1012E00002D0FF297FF470AFE969204606B0BDE85F
:1012F000704005F0BCB902297FF466AF02A905F081
:101300005FF90028ABD0029AB2F5803F02D3E368C0
:101310004A4A5BE7AB7D03F0C003802B02F1020178
:1013200002D1E368464A51E76B8A9942EFD8E969EE
:1013300021F8022B204606B0BDE87040FFF75EBEE4
:1013400002297FF441AF02A9EE6905F039F90028BE
:1013500085D0029A531C02D1E3683A4A36E7AB7D46
:1013600003F0C003802B02F10101DAD06B8A9942AD
:1013700002D9E368344A29E70023B3543146D9E758
:1013800002297FF421AF02A9FFF7E2FE00283FF413
:1013900066AF6B6A13B9E3682C4A17E7AB7D03F0BD
:1013A0000F03092B0AD0AB7D3F2B1FD90023EA691D
:1013B000696A02A800F0EAF906460FE02A6A002AE4
:1013C000F1D052F8083C002BEDD0043A294602A88F
:1013D0009847049B06460BB10028E4D102A9204699
:1013E00005F005F900287FF410AF38E703F030036B
:1013F000203B18BF0123DAE702297FF4E5AE02A9FA
:1014000005F0DEF8064600283FF429AF0299B1F551
:10141000803FBFF47CAF6A8A19B9E86907F065F9C3
:10142000F3E68A4202D0E368094ACFE6E96981E738
:1014300011980000339800002198000045980000A2
:101440005498000066980000759800008598000088
:101450009E980000C368014AB8E600BFC09800002B
:10146000F0B5937D03F0C007402F8FB005460E46C0
:10147000144600F09180802F00F08B805FB903F05C
:10148000300CBCF1200F3DD008D8BCF1000F34D097
:10149000BCF1100F2AD0EB686C4A5FE0BCF1300F52
:1014A000F9D103F00E03082B116A128A6DD10B8853
:1014B00093426AD03946628AE06907F016F9616A98
:1014C0008B682BB9CB681BB94B681B68002B5CD0B1
:1014D000E26904A804F0E5FF002856D004A800F053
:1014E000C5F8002851D1EB68594A37E0136A0BB1AF
:1014F00001221A702246314628460FB0BDE8F0405E
:10150000FFF746BE176AB2F812C039889269022EF8
:101510000CFB0122E26131D103F00F03052B2DD822
:1015200004A9FFF715FE064670B9002623E02246FF
:10153000FF2104A8FFF72CFEA8B13B8801333B80B4
:10154000E369628A1344E361069B1BB13A88A38A6C
:101550009A42ECD3069B43B1EB683E4A002B08BF8E
:101560001346EB60E1E70646F4E704A9284605F0D8
:101570003EF80028D9D030460FB0F0BD3B885A1C49
:101580003A80A28A9A42E7D9B4E7236A228A1A806B
:10159000B0E7C368304AE1E71368DB6823B90FB0EE
:1015A000BDE8F040FFF7A4BD022919D104A9FFF757
:1015B000CFFD0028B9D02368069EDB6822460021B3
:1015C00004A8984710B9EB68244AC7E7069B0BB1FB
:1015D0009E42F0D804A9284605F009F80646CAE755
:1015E000012921D0052927D069BB01AF01360B2E77
:1015F00002D1EB681A4AB1E7012239462846FFF7C3
:10160000FDFC002891D017F9013B002BEEDB154BB8
:10161000049301ABCDE90536002123680791DB680F
:10162000224604A89847D9E7082201A9FFF7E6FC5B
:1016300008260028EBD178E704220DEB0201FFF722
:10164000DDFC0426F5E7C368074A87E7C098000079
:10165000E2980000D3980000549800008C95000098
:10166000D7970000A3650000E797000070B590B021
:1016700004461022002102A807F037F80023019346
:101680008DF8023023689B6843BB0025A37D03F0DF
:101690000F020A2A42D1E3691E68002E31D1019B54
:1016A000ABB1228A934212D19DF80210224602A8C1
:1016B000FFF7D6FE10B30DF1030301AA0DF10201ED
:1016C00002A804F080FFC8B1236A03B11D70204650
:1016D00004F00AFF0028D9D1012010E02A4ACDE900
:1016E00002234FF0FF33049301AA0DF103030DF120
:1016F000020102A804F067FF0028C6D1002010B044
:1017000070BD314606A804F0DCFE28B1357306A88A
:10171000FFF7ACFF0028F1D0B668BEE73F2B2AD810
:1017200003F03002102A1BD1236A03B11D70A37D80
:1017300003F00E03082B18D1616A8B6823B9CB68BC
:1017400013B94B681B6883B1E26906A804F0A9FECF
:101750000028A4D006A8FFF789FF00289FD1CDE775
:101760009A06E4D5236A1D8099E7628AE069002120
:1017700006F0BBFF93E703F0C002802A8FD1A26975
:101780009B0615608BD5EDE7A36500002DE9F04FB2
:101790009BB004469B4606A80023CDE90433ADF870
:1017A0000A3004F07EFE90BB00264FF6FF79B24669
:1017B0003746A368002B39D14FF6FF73994504D003
:1017C000BDF80A30B34240F0BC80069B5B8AE3B1AF
:1017D000402B28BF4023590904A8002295B2A942F2
:1017E00000F2D68003F01F02DB060ED01AAB03EB2B
:1017F0008101C2F12003DBB24FF0FF3222FA03F382
:1018000051F8582C9A4240F0CA8001201BE01BF08E
:10181000010FC9D106A8FFF729FF0028C4D1E3684A
:10182000604A002B08BF1346E3600BE00DF109038B
:1018300003AA02A9204604F0C6FE38B99DF8093073
:10184000002BB9D100201BB0BDE8F08FDDF80C8073
:10185000B8F1000F05D11BF0040FADD1E368524A77
:10186000DFE7414606A804F04AFE28B19DF82E3075
:1018700003F00F020A2A50D18FB906A804F070FEB7
:1018800028B9BAF1000F0CD14FF0FF3707E00D9BDC
:10189000D3F800A0BAF1000FF6D0BDF82870B84513
:1018A00032D3A36801939DF8083000935546A3688E
:1018B000019A35B39A427FF47CAF2B681B689C4633
:1018C00043B1009B424629462046E0470028B9D054
:1018D000AD68ECE7294610A804F0F3FD10B9E36801
:1018E000324A9EE7BDF850309845F1D1119B002B4C
:1018F000EED0012300992B7310AA2046FFF7B0FD0C
:10190000E4E79A427FF455AF9DF808102046FFF7B0
:10191000EFFB00287FF44DAF94E703F03003202B5A
:1019200022D10E9A0BAB9A4217D1BDF820304B450D
:1019300010D04FF6FF72914506D0BDF80A20B24292
:1019400002D0E3681A4A6CE70022BDF82C60ADF8BB
:101950000A2099460DF10A030E939DF8081006AA75
:101960002046FFF77DFDD4E7002BF6D1BDF82430EB
:101970003F2BF2D859091AAA02EB810103F01F028A
:101980000123934051F8582C134341F8583CE4E7A5
:1019900050F8045B013502F101023FF41FAFE36828
:1019A000044A3EE7E2980000F9980000029900001E
:1019B00014990000359900002DE9F04F91B084078B
:1019C000009302F004030293C2F3C20303F1010384
:1019D000DDF86880039205460E46059340F0BA8113
:1019E000041D30B1072909D86FF01B0011B0BDE804
:1019F000F08F01F007063444C6F10806009B4FF053
:101A00000009591E4FF0040A4FF0FF330193CDF83F
:101A100010904F46CB4653460DB1009A2260059870
:101A2000002800F3E8809848009A824203D3974840
:101A30008242C0F0E080039AA4EB050E92074FEAC1
:101A40009E0000F103810F2F00F2B180002D00F005
:101A5000058107F140020DEB020C019A0CF8200CF5
:101A60000CF8102C049801300490E7E07A285DD837
:101A70004B280ED8472859D829282DD8252852D0A8
:101A800054D820287AD02338D0F1000B4BEB000B30
:101A900074E04C382E2849D8DFE800F070484848F8
:101AA00048484848484848484B48484848484848B3
:101AB0004859484B4B595959704B6D487048184B11
:101AC000184848827F4B48484B487F0000204FF021
:101AD000000B4FF0040A38E02A38C0B2012202FAA3
:101AE00000F010EA0E0F49D110F0625C2FD110EA1D
:101AF000020B43D06046013C5444B4FBFAF40AFBA9
:101B000004F4002D61D0A3EB050CA444B4453FF6CA
:101B10006BAF002868D1042B47D158F8043B2360F1
:101B2000043404232AE0019A013A01924FF0000B99
:101B300024E011F8010C6C2834D111F8023C00208B
:101B40006C2B8346C5D14FF0080A5346D3E708F102
:101B5000070828F007080734F8E802AB24F0070468
:101B600035B106982044B0423FF63EAFC4E900AB21
:101B700008344FF0000B4FF0080A534611F8010FDC
:101B8000002878D0BBF1000F7FF470AF2528F5D185
:101B9000019B013301934FF0010B4FF0040AECE776
:101BA000584694E700208346A5E7082B02D06FF043
:101BB00015001BE708F1070828F00708F8E80223DA
:101BC000C4E9002308340823D8E768B9042B02D1FC
:101BD00008F10408A4E7082BE9D108F1070828F068
:101BE000070808F10808EDE7059A013A059258F848
:101BF000042B009210E7039A900720D5A4EB050E62
:101C00004FEA9E004FF0010CBEF5007FCFD20F2FA0
:101C1000CDD8F5B107F140020DEB020EC0B2019A2A
:101C20000EF8200C0EF8102CBCF1000F3FF41AAF88
:101C300060F07F000EF8200C09F101090137C5F1B1
:101C40000802043406924FF6DA7E97E74FF0000C54
:101C5000DAE7BCF1000F01D00136EFE70298023657
:101C60000028EBD10098CDE90631FEF749FCDDE90B
:101C700006310644E2E7631BB3F5806F97D23DB9A6
:101C8000A6F10804E018B1E6BC8A000054A20000E6
:101C9000029A28609B082B709DF81030C2B1EB703F
:101CA00085F80290B9F1000F05D008A80022C5F10F
:101CB000010C97420ED1C5F101030DF120084FF040
:101CC000000A01930DF1300B574512D1601B8DE6D0
:101CD0006B70E5E710F8013B190608D50CEB040E14
:101CE000B64503F07F033FF67FAE04F8013B0132B7
:101CF000DFE7B9F1000F03D098F90020002A17DBC5
:101D0000029BD3B11AF80B2004F8012B0022019B8F
:101D100018191044B0423FF667AE98F8000004F876
:101D2000010B00990392204606F0D1FC039A14445B
:101D30000AF1010A08F10108C6E798F8002055F8F1
:101D400022300093029B45F822300098FEF7D8FB22
:101D5000421CDCE76FF00D0048E600BF2DE9F04FB4
:101D600097B000AF90F802A0D7F880B03B62CBF3F9
:101D7000C0030446FA62BB61894641B945780078E0
:101D80000AEB800020444D4517D8A0EB0409E37806
:101D9000FB61BAF1000F02D01BF0010F16D1FB69F5
:101DA00053BBFB6A1BB13A6A4946204698474D46E9
:101DB00028465C37BD46BDE8F08F461C3046FEF72E
:101DC0009FFB0130304409F10109DCE723786268A8
:101DD0007A62FA6A9900796104EB8301002A40F083
:101DE00000814D460E4601EB0A094FF000084E45B2
:101DF0004CD101EB0A0610E01BF0020FD1D0237882
:101E00009A007A6162687A62FA6A04EB8301002AB6
:101E100077D14D4601EB0A0690461BF0050F0CBF2B
:101E200002230123FB62FB6906EB430A0BF002036A
:101E3000BB625645BCD016F8021B16F8013C54F89C
:101E40002390994B994502D3984B994536D3BB695A
:101E5000002B40D0786A04F016FE00283BD0E946FB
:101E60008AB06A46924B53617B6AC2E906314FF4ED
:101E7000007313848F4B42F8103F8F4800234FF4B8
:101E8000125100F033FC023DCD46D2E716F8013B7B
:101E9000F96254F82300FEF733FBD7F88430F96A6F
:101EA00001304BB1D7F8883098453EBFD7F8843021
:101EB00023F8180008F10108054498E7BB6923B12D
:101EC000786A04F0E0FD0028C9D11BF0010F05D1AC
:101ED000FB6AED1AADE7BB6A002BAAD04846FEF7B5
:101EE0000FFBD7F8843053B1D7F8883098453FBFFF
:101EF000D7F88420431C22F8183008F10108054463
:101F000097E7BAF1000F72D01BF0040672D0D046EA
:101F1000002607F1480052463B61B96206F0D7FB44
:101F2000B96A3B6901EB0A02BA62FA69F9695200BF
:101F3000FA60BA6A02EB41023A610BF00202BA603F
:101F40003A69B96A8A4257D162787A621BF0020F05
:101F500032440CBF4FEA580100211BF0010FD2B2EE
:101F600040F09F801BF0040F14BF40460020BB616F
:101F70006270A070E1703A6A7969FB6A20469847FE
:101F8000051EFFF615AFBB6923707B6A6370FB69A2
:101F9000E37041463A6AFB6A84F802A007F1480000
:101FA0009847B0F10008C0F2BB807B693A6AA9EBA0
:101FB0000A01C91AFB68C91AD7E90A039847002819
:101FC000C0F2B080A84408EB00054FF0000B07F109
:101FD000380AB34572D300213A6AFB6A084698472B
:101FE000E6E656464FF0000807F1380093E75646FC
:101FF000D04697E7B04695E7BA6A12F8021BBA6274
:1020000012F8015C284A54F82500904202D3274A6E
:1020100090421ED3BA6932B1786A7B6004F033FD16
:102020007B6800288CD1BA6802BB08F1280207F14E
:10203000300C08F10100944407F1580252FA80F084
:1020400008F102080CF8101C5FFA88F800F8105C20
:1020500076E7BA693AB1786A7B6004F014FD7B6870
:1020600000287FF46DAF1BF0010F09D006F12802A4
:1020700007F13000711C161806F8205CCEB25FE73D
:102080001BF0040F3FF45CAF08F1280207F13000A9
:1020900008F1010102EB000808F8105C5FFA81F812
:1020A0004EE7002063E700BFBC8A000054A2000096
:1020B0004C990000040000018C8B00001BF80A30D2
:1020C00087F8373054F82390D7F884302BB3D7F8FB
:1020D00088309B4521D2D7F8843033F81B803A6A88
:1020E000FB6A012107F13700984700281ADB0544F5
:1020F000B8F1000F06D14846FEF702FA00F10108D8
:102100001FFA88F83A6AFB6A414648469847002811
:1021100008DB05440BF1010B5BE74FF00008DEE73D
:10212000454645E6054643E6014B1860704700BF4B
:10213000B4A2000080B505460E461746984602F048
:1021400041FD034606F0B0FCDFF81890044649F85C
:102150000030424630463946A84754F8090001F09D
:1021600097F800BF08000000024B036058230B6083
:10217000704700BF0000C09C07B505230093084AC4
:102180000848002300F070FD074B0849084A996091
:10219000DA6003F580439960DA6003B05DF804FB10
:1021A0000000204458A20000001008049034EF689A
:1021B0005ABC72D12DE9F047DFF858800446074633
:1021C0004FF0010914B93846BDE8F08794FAA4F538
:1021D000B5FA85F509FA05F32E0108EB05156FEA46
:1021E000030A24EA03042B7B002BEBD058F80630BB
:1021F0001B694BB94644042273682846196807EAEC
:102200000A0700F05FFADDE7284698470028D9D191
:10221000F0E700BFD48B000030B51049104889B0FA
:10222000002206F0A9F90F4D0F4900220023CDE945
:10223000062300240E23CDE90334CDE901440B4BE2
:1022400000944FF44072284602F066F90849284687
:1022500006F05EF8204609B030BD00BF75220000D0
:1022600028AB0000B0A6000030B8000069250000CF
:10227000009A0000014802F09BB800BFBCA5000016
:102280002DE9F04780461E480F4604F0A3FE06469F
:1022900078B300252846BDE8F087237B6BB123681F
:1022A000DB680BB12046984723681B69CBB963688C
:1022B00004221968204600F005FA013610344C4516
:1022C000EBD3B8F1000FE5D0002DE2D02846FFF7A0
:1022D00071FF0546002FF7D00021642002F054FC66
:1022E000F2E7204698470028E1D00AFA06F31D439A
:1022F000E3E7044CDFF8109005464FF0010ADEE7F3
:10230000C8AE0000D48B0000E48B0000014B53F8F2
:1023100020007047788F000008B5034608462BB1AF
:10232000044A136000F078FC002008BD6FF015002F
:10233000FBE700BFB8A2000010B5044C237813B926
:10234000034802F035F80123237010BD29B00000C6
:10235000BCA5000010B504460B4804F03BFE5CB180
:10236000BFF35B8F094B53E8001F013943E80012AC
:10237000002AF8D1BFF35B8F054806F009F905483C
:10238000BDE8104002F014B8C0AE0000C4AE0000BA
:1023900028AB0000BCA500000020064BBFF35B8FFC
:1023A000014653E8000F43E80012002AF9D1BFF3B9
:1023B0005B8F7047C0AE000070B5FFF7EDFF084CB3
:1023C000084E0546B44200D370BD63685B792BB1FB
:1023D00023685B6813B12946204698471034F1E71B
:1023E000D48B0000E48B000010B5044C0449204657
:1023F00004F079FC034B1C6010BD00BF2CA500004D
:10240000648F0000B8AE0000084A094808B50023F0
:102410001370084A1360084A4FF47A711360FFF78B
:102420007BFFBDE80840FFF7DFBF00BF2AB0000018
:10243000EF6F0000C0AE0000C4AE000001460022F5
:102440000148002304F070BC2CA50000014804F0F2
:1024500006BD00BF2CA50000024B0146186804F021
:1024600052BD00BFB8AE0000014804F087BD00BFF8
:102470002CA5000070B5254B1878002844D0FFF734
:10248000E5FF054690B1BFF35B8F214B53E8001F7A
:10249000013943E80012002AF8D1BFF35B8F1D4CCD
:1024A0001D4EB44226D32846FFF7D6FF1B4B1C4CCB
:1024B0001B68002B12DD06F018F80A220023FDF736
:1024C000FBFFD4E90032C01A40F2E93361EB0201AC
:1024D000984271F1000101D3FFF76EFFD4E9003299
:1024E00013F57A7342F10002C4E90032BDE870408E
:1024F000FFF7BABF63685B7923B1236829461B687D
:10250000204698471034CCE770BD00BF29B00000CA
:10251000C4AE0000D48B0000E48B0000C0AE00000D
:1025200020AB000070B50D4D297861B90120FFF78F
:10253000A7FE0B4C0B4EB44206D3FFF79BFF0028BF
:10254000FBD101232B7070BD63685B791BB12368DD
:1025500020469B6898471034EDE700BF2AB0000082
:10256000D48B0000E48B000000212DE9F0470846E1
:10257000FFF786FE044658B34FF4FA784FF000098F
:1025800006F092FA1B4B1C4A1B58136033B11B4BCD
:102590001B68092B02DD1A4801F00AFF194FDFF80A
:1025A00060A0002544B12046FFF704FE044618B998
:1025B0004FF0FF384FF0FF39FFF75CFF064628B9B0
:1025C000B5B942464B46504601F026FF3546E9E78D
:1025D0004FF0FF384FF0FF39D2E72B689B691BB1F2
:1025E00000221146284698471035BD42F5D3E8E74A
:1025F000054DFAE708000000BCAE0000C4AE0000C4
:10260000BCA50000E48B0000D48B000013B5184873
:1026100004F0E0FC174B1B7873B1EFF31184202317
:1026200083F31288BFF36F8FFFF724FF84F31188C1
:10263000BFF36F8F02B010BD0F4B1B68002BF9D09A
:1026400050B900220023CDE900230C4842F2107259
:10265000002302F0F5FCEDE70928EBD1074805F06F
:1026600097FF074802B0BDE8104001F0A1BE00BFCF
:10267000C4AE00002AB00000BCAE000028AB0000D1
:10268000BCA5000010B5064B1B68044698472146C0
:10269000A060044804F0C4FBBDE81040FFF7B6BFDB
:1026A000B8A200002CA50000044A054B9B1AB1EB10
:1026B000D30F34BF52F83100002070478C8B0000DC
:1026C000D48B0000084BC31A10B41B1144680133AB
:1026D000237143689A7143681960436801225A71F3
:1026E00010BCFFF729BE00BFD48B00002DE9F04FCE
:1026F0008FB004AFC1F34A28B8600D4691467B60A5
:102700000C0DB8F1000F63D0002607F114034FF051
:10271000040B4FF00A0AC7F80C80C7E907667E620F
:102720000193CDF808B0CDF800A007F11C03F968BB
:1027300032464846FFF712FBB0F5006F03461CD344
:102740006C468AB0D9F8041004AB2648C3E90501E9
:1027500040F2FF71D9611A464FF400711984224B7F
:1027600042F8103F214833464FF41251FFF7BEFFA5
:10277000A5462C37BD46BDE8F08FC0F30A0804F12A
:102780001700184420F0070080083B60FFF756FE52
:1027900068F35325044690B13B68154AC7E90836EB
:1027A00000F1100107F11403F961CDE900A3CDF8A0
:1027B00008B0F96807F11C034846FFF7CFFA68F341
:1027C00053257B68B9682A46204604F041FCD0E7CF
:1027D00004F1170020F007008008FFF72FFE0446E1
:1027E000EDE700BF159A0000040000019C8B00007B
:1027F000257000002DE9F04F87B0DDE91279DDE9A1
:10280000105A0446039193469846BFB1CDF8009004
:102810003B46524610210020CDF81490FFF7CCF82B
:10282000B0F5006F06460AD3184A194840F2FF7304
:10283000022107B0BDE8F04F04F063BC3E4605F14D
:102840001700304420F0070004F007048008FFF769
:10285000F5FD0BF0070BE40044EA8B1444EA462430
:1028600044EA0554054640B13FB1CDF800903B46DF
:10287000524631461030FFF79FF8039943462246EF
:10288000284607B0BDE8F04F04F0E2BB549A0000C0
:102890009C8B0000406820B1034BC01A40F3CF006E
:1028A00070474FF0FF3070478C8B00000EB403B5BB
:1028B00003AB014653F8042B0448019300F0FEFDDE
:1028C00002B05DF804EB03B0704700BF6571000013
:1028D000CA0605D48B064CBF02490349FFF7E6BF81
:1028E000704700BF48A0000047A000002DE9F04F4E
:1028F00089B09B46149B06939DF84CA0159B0593AD
:10290000169B179E049304460D469046BAF1000F9D
:1029100000F09D8006F48073079304F081FB06F0BD
:102920000209024600283ED091492046FFF7BEFF2B
:102930000746B9F1000F08D016F0440F35D18D4984
:102940002A462046FFF7B2FF074406F0010353B1C1
:10295000894B8A4953F82A20894B2046002A08BF10
:102960001A46FFF7A3FF06F48073002B49D006F048
:102970000803002B63D1B8F1000F66D081494246AD
:102980002046FFF793FF0546069B3D44002B6DD183
:10299000049B002B73D1F30700F1E48031462046FD
:1029A000FFF796FFD8E00746C3E7774B1868002883
:1029B000CAD0764B4FF47A791B68B5FBF3F54FF428
:1029C0006161B5FBF0F300FB135509FB05F54FF012
:1029D0003C0CB3FBF1F201FB1231B5FBF0FEB1FB95
:1029E000FCF300FB1E550CFB131109FB05F50091D0
:1029F000B5FBF0F56649CDE901E52046FFF756FF46
:102A0000A2E706F00803EBB1624B634953F82A20B2
:102A10002046FFF74BFF0546B8F1000F05D0594996
:102A200042462046FFF742FF0544BBF1000FABD002
:102A30005A495A462046FFF739FF0544A4E74FF0AC
:102A4000000BE1E706F00805E6E745469CE7BBF129
:102A5000010F069B06D1002B64D1049B002B7BD079
:102A600000250CE0002BF8D04D485CE04D48069B5B
:102A70004D49224603F0D6FF049B002B68D0DFF8B7
:102A80002C81DFF82C91049F3146102F204628BF5F
:102A90001027FFF71DFF4FF0000B5D4545DC059B40
:102AA00049461A782046FFF701FF4FF0010B1BF053
:102AB000070F03D141462046FFF7F8FE5F453BD99B
:102AC000059B494613F80B202046FFF7EFFE0BF15C
:102AD000010BBBF1100FEAD1364920464FF0000B35
:102AE000FFF7E4FE5A46059B9A5CA2F120015F299C
:102AF00028BF2E2230492046FFF7D8FE0BF1010BEC
:102B0000BBF1100F1DD01BF0070F03D1414620462B
:102B1000FFF7CCFE5F455A46E5D841462046FFF711
:102B2000C5FEEBE71F485546A1E741462046FFF7A3
:102B3000BDFE0BF1010BB0E720492046FFF7B6FEC2
:102B4000C5E7059B3B440593049BDB1B04939AD18B
:102B5000BAF1000F7FF41FAF204609B0BDE8F04F77
:102B600004F0F3BA064A05492046FFF79FFE15E731
:102B7000919A0000959A0000888F0000D49100007F
:102B80008C9A0000BA9A0000D0AE0000CCAE0000D3
:102B90009E9A00009C8F0000BE9A0000C49A00001C
:102BA0009B71000065710000BD34000013A000009F
:102BB000C99A0000CF9A0000D19A000011A000002D
:102BC00073B542F20F738B4228BF0B4605680F4A5C
:102BD00004460521684602F093FA63680C495B6875
:102BE00006460B22284604F0A2FA6368324669467C
:102BF00028465B6804F09BFA636806495B681B2201
:102C0000284604F094FA02B070BD00BF3E95000063
:102C1000F09A0000D49A0000074A00210123904254
:102C200006D8064A01B901231360054B18607047A6
:102C300040085B000121F2E740420F00CCAE0000EB
:102C4000D0AE0000F8B5074F0D4604464618B44212
:102C500001D12846F8BD14F8011BBB6801485B6828
:102C60009847F4E7188B0000F0B516499DF814302A
:102C70008860C1E9003200240127A4460B689C4209
:102C800000D3F0BD8868A2B2130100EB0212C6584F
:102C9000D2E902E0202828BF202007FA00F56D4283
:102CA0002E400EEA0505D1F804E09288734440F006
:102CB0000040C3F820C001345D629E62DA6218628F
:102CC000DCE700BFF8AE00002DE9F04320B3184B5D
:102CD0009F68D3F800C0002206463C4696464FF057
:102CE0000108944503D10E600020BDE8F083D4E9CB
:102CF000009548457EEB05030BD3E36808FA03F320
:102D0000013B13EB090345F10005834275F1000512
:102D100005D201321034E4E76FF01500E5E7130146
:102D200007EB0212FE5892681044861BDBE700BFD7
:102D3000F8AE00002DE9F047064600AF0C4600292A
:102D400036D0E9468AB0D1E90012A3686D46214821
:102D5000A8464FF0050AC5E90501C5E9072348F86B
:102D600010AF1D48424600234FF42151FFF7BEFC2F
:102D7000CD46D4E903126369AD461848C5F810A0E2
:102D8000C5E90501C5E907231348002342464FF46E
:102D90002151FFF7ABFCCD46E369114A0E480121F2
:102DA00004F0AFF9A3690F4A0B48012104F0A9F917
:102DB000012E07D1EFF305830B4A0748103B31463C
:102DC00004F09FF92146304601F05AF9BD46BDE8AE
:102DD000F08700BF369B0000BC8B0000659B0000A5
:102DE000949B0000A39B0000D19B000030BFFFF725
:102DF000FDBF00BF2DE9F0410B4EDFF8308006EB40
:102E00000807CC1B054632460949204605F05FFC01
:102E1000A01942460021083C05F067FC6C6607F1EA
:102E20000800BDE8F08100BF0000000004000000C1
:102E3000E48B0000074A936893F90E10002907DB22
:102E4000526993421FBF044A536843F08053536052
:102E5000704700BFF0AF000000ED00E070B5224CFD
:102E600006460D462148224904F01EFAA36AD906F7
:102E700038D51E481F4904F017FA1120A36A1A0713
:102E800004D51A481C4904F00FFA1220164CA36A04
:102E90009B0712D51949154804F006FA636BA26A1C
:102EA000110609D5164A1148012104F02AF91EB16C
:102EB000A36A23F08003A36213200B4CA36ADA07F2
:102EC00004D50A480F4904F0EFF91420A36A064A12
:102ED000DB0658BFA36A936A43F0FF0393620023A3
:102EE0002B7070BD1020C9E700ED00E0BC8B000026
:102EF000E49B0000FA9B00002D9C0000409C000019
:102F0000589C00006E9C000010B5204C20492148C0
:102F100004F0CAF9A36A990136D51E481E4904F087
:102F2000C3F91E20A36ADA0104D51A481B4904F02C
:102F3000BBF91F20154CA36A1B0304D5154818497B
:102F400004F0B2F92120A36A590304D511481549A8
:102F500004F0AAF922200D4CA36A9A0304D50D4867
:102F6000114904F0A1F92320A36ADB0304D5094821
:102F70000E4904F099F92420044A936A6FEA034346
:102F80006FEA1343936210BD1D20CBE700ED00E014
:102F90008D9C0000BC8B0000A59C0000B89C00002C
:102FA000D29C0000F09C0000159D00002F9D0000A9
:102FB00070B5244C06460D462348244904F074F9A4
:102FC000A36AD9043CD52048214904F06DF91720A3
:102FD000A36A1A0504D51C481E4904F065F9182097
:102FE000184CA36A9B0512D51B49174804F05CF9DD
:102FF000A36BA26A110409D5184A1348012104F0F1
:1030000080F81EB1A36A23F40043A36219200D4C7B
:10301000A36A5A0504D50C48114904F045F91A2051
:10302000A36ADB0504D508480E4904F03DF91B20CE
:10303000044A936A43F47F43936200232B7070BD6C
:103040001620C5E700ED00E0BC8B00005A9D000093
:10305000709D00002D9C0000819D00009A9D000045
:10306000AF9D0000CA9D00002DE9F041654B8AB07C
:10307000D3F8048000AF0446C8F30805002686F3A1
:103080001188BFF36F8F02F07F43B3F17F4F07D1F9
:1030900002F00C03082B12D15B495C4804F004F9E0
:1030A000002634460023FB71EB1E092B00F28980B9
:1030B000DFE803F00A7F827B878787878785100791
:1030C0004CBF0C460126EDE7514950484D4D04F0E8
:1030D000EBF80023FB71EB6A9A0705D54D494B4885
:1030E00004F0E2F8002331E0EB6A002B01DA4A49F0
:1030F000F5E7EB6A5B00F5D54849444804F0D4F89D
:103100006B69A26943F480736B61BFF34F8FBFF3A8
:103110006F8F6B6932F8022C23F480736B61BFF3FD
:103120004F8FBFF36F8F4DF602739A4207D0AB6A91
:10313000DBB26BB3F91D0120FFF790FE37E0236887
:10314000374A3248012103F0DCFF2368FA79DAB903
:1031500007F1080504F1200C206861682A4603C2C3
:10316000083464451546F7D17A6A002E45D0C2F37B
:10317000080121B96FEA52226FEA42227A6207F10E
:1031800008011846FFF7D6FD2837BD46BDE8F08197
:10319000AB6A13F47F4F04D0F91D0120FFF708FF3D
:1031A00005E0AB6AB3F5803F9CD3FFF7ADFE034665
:1031B000CCE7F91D0020BFE7F91D0020EEE7194913
:1031C0008DE7194A194B18F4F87FE8468AB018BF02
:1031D00013466A461649C2E905134FF40073138477
:1031E000103D144BD56142F8103F084800234FF4BE
:1031F0001151FFF77BFAC54674E722F4FF7222F003
:103200000102BBE700ED00E0109E0000BC8B000057
:103210003B9E0000529E0000739E0000819E0000B5
:10322000A09E0000BC9E0000F79D0000E29D0000F3
:10323000E09E000004000001044B5A6942F01002B5
:103240005A615A6922F008025A61704700ED00E0A5
:10325000EFF30880EFF3098101B57246FFF704FF31
:1032600001BD00BF202080F3118808484FF40061A1
:10327000401880F30988EFF314800221084380F39B
:103280001488BFF36F8F00F0A5F8000030BB00007A
:10329000084B9B6883420BD1EFF3058343B1064B88
:1032A0005A6842F080525A605A6A22F400425A62C6
:1032B00005F0E0B8F0AF000000ED00E0094A9368C7
:1032C0006FF00A01D966084998664B6843F080534D
:1032D0004B60002383F31188BFF36F8F9368D86E20
:1032E000704700BFF0AF000000ED00E012498A68AF
:1032F0004FF030001044EFF3098C80E8F01F2020DD
:1033000080F31288BFF36F8F0C4F4FF000664A694D
:103310008A603E604FF0640414192068084C2060F5
:10332000906E0023936680F3118802F1300090E8DC
:10333000F01F8CF309887047F0AF000004ED00E047
:1033400004AF00001EF0040F0CBFEFF30880EFF392
:103350000980816911F8021C0229FFD001B572466B
:1033600003F097FF01BD00BF0028ACBF00F1604033
:10337000064B4FEA4111ACBF00F5614000F00F0071
:10338000C9B2B4BF195480F80013704714ED00E0BF
:1033900040B2002807DB044A4109012300F01F0066
:1033A000834042F82130704700E100E040B200283D
:1033B0000CDB4309064900F01F0020330122824044
:1033C00041F82320BFF34F8FBFF36F8F704700BFCB
:1033D00000E100E008B5074B074A23F07F03936044
:1033E000BFF34F8FBFF36F8F00F036FF00F048F848
:1033F00000F072FF0000000000ED00E042F8203C09
:10340000009B42F81C3C0A49019B42F8183C029B75
:1034100042F8143C21F001014FF0807342F8043C63
:1034200042F8081C0023203A02658366704700BFFB
:103430003521000000B50B4B98600B4B1546426ED2
:103440001A600E462C4686F309884FF00000074BA1
:10345000984720464FF000014FF000024FF0000364
:10346000034C2047F0AF000004AF0000C172000021
:1034700035210000014B10221A61704700ED00E079
:10348000044800232021C2180133402B82F8001386
:10349000F9D1704700E100E008B5EFF30583064A73
:1034A000103B02EBC30152F8330049688847BDE87E
:1034B0000840FFF7BFBC00BF24A30000F0B587B0F1
:1034C00007460E4614460021102268461D4605F0A8
:1034D0000CF902238DF802302A46054B0193214650
:1034E0006846CDE9047601F0D3FE07B0F0BD00BF19
:1034F000E972000008B5024B1B689847002008BD20
:1035000008AF0000034B044A1860937843F00203AD
:103510009370704708AF0000C4A2000008B50549C9
:10352000054821F00701C1F5403203F03EFA0020C2
:1035300008BD00BF37CC00000CAF000008B507483D
:1035400004F09BFE38B10648FFF7DCFF0448FEF7A5
:10355000EBFD002008BD6FF01200FBE7188B0000A8
:10356000653500000A2838B5074D044604D1AB681C
:103570000D215B6828469847AB6803485B68E1B259
:103580009847204638BD00BF188B000073B501690D
:10359000456851F8046F0446A868FFF795FB4FF0A3
:1035A000FF33336020462B689847686901AA0021E1
:1035B00003F0DCFF041E07DB019B00221979186869
:1035C00000F010F8041E07DA044A0548012103F050
:1035D0008FFD204602B070BD0024FAE7F39E000084
:1035E000948B000070B5084B051D1C680023DAB2EF
:1035F000914201D8002070BD50F8332055F8336057
:10360000A6500133F3E700BFC0AF000010B54FF084
:10361000E0230F499C691A6908689B690D4902F407
:10362000803234B993B903464AB90A681044C01AC3
:1036300010BD002B08BF03460AB9A342F5D90A689A
:1036400002440A604FF0E0221269EEE70446F3E715
:10365000C8AF0000C4AF00000A4B202283F823202B
:10366000094B49F640421A60084B002018604FF0A1
:10367000E02349F63F425A6198611A6942F0070215
:103680001A61704700ED00E0C8AF0000C4AF000051
:10369000684620F007018D4619B5FFF7B7FF114BBB
:1036A0001149D3E900420868001942F10002C3E958
:1036B00000020E4A00230B60D2E9004149F6404364
:1036C000001BB0FBF3F043431B1941F10001C2E9B9
:1036D000003101F0C5FBFFF7ADFBBDE819408546A1
:1036E000704700BF68AB0000C4AF000060AB0000D3
:1036F0002DE9F041DFF8DC8099B1421C0BD14FF08D
:10370000E022136923F0010313614FF07F43C8F8EF
:103710000030BDE8F081D8F80060012807DC002700
:103720000BE0431CD8F80060F7D14FF4D17040F2A1
:10373000A3139842A8BF1846471EEFF31185202314
:1037400083F31288BFF36F8FFFF760FF224C4FF0B7
:10375000E0239969D4E90023801843F10003C4E908
:1037600000031E4B00221A601D4B1A68831A2ED4C8
:1037700049F6404C0CFB073303F51C433F33B3FBC6
:10378000FCF7131A0CFB073340F6C412934238BF00
:103790001346144A934228BF13464FF0E022C8F85C
:1037A0000030013B90695361002393618142A1EB9A
:1037B0000003D4E9001238BF9B195B1842F10002E4
:1037C000C4E9003285F31188BFF36F8FA1E740F69B
:1037D000C413E2E7C8AF000068AB0000C4AF00004C
:1037E00060AB00008020FF0038B5EFF31185202387
:1037F00083F31288BFF36F8F084B1C68084B1B685C
:10380000E41AFFF703FF85F31188BFF36F8F49F6C2
:1038100040432044B0FBF3F038BD00BF68AB00006C
:1038200060AB00002DE9F0410D4D55F81C4F0E46E0
:103830001746AC4203D16FF01200BDE8F08154F896
:10384000440C3146A4F14408FCF750FE30B9C7F8E7
:1038500000804046BDE8F04104F070B82468E8E715
:10386000CCAF000010B5D0E909124A60416A11607E
:1038700000F12403C0E909334368044603B19847C3
:10388000054A936833B11279062A03D9226803499D
:1038900007209847002010BDCCAF0000739F0000A8
:1038A0002DE9F0410C4E56F80C4F07460D46B44238
:1038B00002D16FF001000AE054F8240C3946A4F15B
:1038C0002408FCF713FE20B91DB1C5F80080BDE83F
:1038D000F0812468EBE700BFCCAF000038B50446A8
:1038E00000B30068F0B10378E3B10021FFF7D8FF1F
:1038F000D8B104F11C03C4E907330D4B1969A16267
:1039000004F1240203F10C0060621A610A609D68F0
:1039100035B11B79062B03D9226806490720A84731
:10392000002038BD6FF01500FBE76FF01000F8E7DE
:10393000CCAF0000759F000038B5114C21680546DA
:1039400019B101312160002038BD2422204604F045
:10395000CCFE2B68A3602B79237104F10C03C4E91E
:10396000033304F11403C4E90533284604F11C03AE
:10397000C4E9073300F018F80028E5D12168E0E732
:10398000CCAF000038B5074D2C68013C2C6044B921
:1039900000F012F8214628462422BDE8384004F001
:1039A000A4BE38BDCCAF000008B50248FFF796FFB3
:1039B000002008BDECA200000148FFF753BF00BF84
:1039C000ECA200000EB433B5431E062B05AC88BF35
:1039D0000020094B54F8045B53F82010074803F00B
:1039E0007BF821462846019403F074F802B0BDE844
:1039F000304003B0704700BF74900000D4910000C5
:103A00002DE9F04385B01646DDF830801F460446A8
:103A100058B3056A35B12D6825B1AC4605B0BDE88F
:103A2000F0436047A36A9E4222D800254FF0180950
:103A3000B54203D1002005B0BDE8F083E16A09FB7F
:103A400005F28B188A580292226A926A019258F8FB
:103A50002520009257F825200433A9B2204603F010
:103A60008BFF0028E7D10135E2E76FF01500E2E7B0
:103A70000048E0E740F4FFFF10B5044690B1028D26
:103A800043899A4209D0084A936833B11279032ACC
:103A900003D942680549042098472046BDE81040F4
:103AA00004F0A5BD10BD00BFCCAF000028A00000F1
:103AB00030B544898C4212D9436A5D88013C2C4060
:103AC00003EBC40359609A60BFF35B8F426A53886B
:103AD00001335380438D01334385002030BD0148BD
:103AE000FCE700BF41F4FFFF70B4039E144658B1D9
:103AF000006A48B143B1013406D0002E04DBC46F24
:103B000014B1A44670BC6047014870BC704700BF48
:103B10002DF8FFFF70B51E460F4B0C4611460546AB
:103B20002022002908BF1946204604F096FB0123F5
:103B3000E362049BA362059B6363069BA363079BED
:103B40006364666225626A68C4E90F5204F13C034B
:103B50006B60226C136070BD49A000002DE9FF4727
:103B6000DDF834800E4691469A460546002876D008
:103B7000002974D0B8F1000F71D001F16407384604
:103B800003F0C0FFBAF1FF3F49D1346E06F1500295
:103B900004F18000844204F01F0C07D2C4F34111E9
:103BA00052F8211021FA0CF1C90736D404F07F0431
:103BB0006009012152F8203004F5806A01FA0CF105
:103BC00004F201440B4304F07F0442F820303466D1
:103BD0006B6C03930E9BCDE901830C9B00934A46CB
:103BE000534629463046FFF795FF384600F0E0FB84
:103BF0002C7874B196F89C405CB1AB6A013330D13B
:103C00000021284603F0BDFF044610B1284603F00A
:103C10008EFF204604B0BDE8F0870134BAE7BAF55C
:103C2000806FD5D3AAF580637F2B06F150010FD8A2
:103C3000580903F01F0351F8204024FA03F2D20779
:103C40000BD4012202FA03F3234341F82030BFE7EB
:103C5000054C384600F0ACFBDBE7044CF9E7024CBE
:103C6000D7E70024D5E700BF2DF8FFFF29F8FFFFB5
:103C700008B583681A0C0AD1094A93682BB11279E6
:103C8000022A02D9074903209847002008BDA3F55E
:103C9000803383601B0C0CBF01200020F6E700BFBF
:103CA000CCAF00004AA0000038B50446C0B100F116
:103CB0006405284603F0D2FFD4F8AC309B69012B91
:103CC00005D0084C284603F0C7FF204638BDD4F87D
:103CD000B40003F0FFFEA0F11004002CF2DCF0E7CA
:103CE000014CF2E72EF8FFFF2DF8FFFF38B5044630
:103CF000C0B100F16405284603F0B0FFD4F8AC3041
:103D00009B69012B05D0084C284603F0A5FF2046EF
:103D100038BDD4F8B00003F0DDFEA0F11004002C93
:103D2000F2DCF0E7014CF2E72EF8FFFF2DF8FFFF81
:103D30002DE9F04385B00F46904603A90D9A05463C
:103D4000994604F006F90446E0B1D5F8B8000C9E97
:103D5000039B0168D0F808C09E42A8BF1E46611AA6
:103D600033464A46614528BF4FF0FF3103F0ACFDB2
:103D70000096234642463946284604F024F805B00A
:103D8000BDE8F0830048FAE72EF8FFFFF0B50E46D5
:103D900089B015461F460446002800F0A880002977
:103DA00000F0A580002B00F0A2800021C0F8C81010
:103DB000A02204F09AFC0122114604F1640004F0F0
:103DC00095FA4C4BC4F8AC6065677462E3674A4B84
:103DD000C4F88030494BC4F88430494BC4F888306B
:103DE000484BC4F88C30484BC4F89030474BC4F86B
:103DF0009430474BC4F89830D4F8AC309B69012B11
:103E000009D0D4F8AC00E0B96FF01505284609B028
:103E1000F0BD4307F5D4D4F8AC000028F4D0036A11
:103E20008BB19B687BB198474206F2D5D4F8AC00C1
:103E30000028E9D0036A33B1DB6823B10021984739
:103E4000E9E7036A13B96FF00505DFE71B69002B8B
:103E5000F9D0984700F0010084F89C00D4F8AC0039
:103E60008369012B07D12B4B04932B4B05932B4BD1
:103E700006932B4B079304F1C003C4E930330021B0
:103E800006ABC4F8B87002220093019104ABFFF7AF
:103E9000B7FD05460028B9D1D4F8AC309B69012B99
:103EA00007D1F36A9B69C4F8B030F36A1B68C4F8A1
:103EB000B430D4F8B40003F0CCFDF36A1B68DF62C1
:103EC000F36A9B69DF6294F89C30C4E90044002BDC
:103ED0009CD000230293134B01933523124A039481
:103EE000009304F108012046FFF714FE8EE70F4D02
:103EF0008CE700BF313D0000B17C0000757E000002
:103F0000537F0000C77D0000697C0000ED3C00008D
:103F1000A93C00006BA0000071A00000577C0000CD
:103F2000A17E0000D57C000077A000002DF8FFFFE7
:103F30002DE9F04F9A46836A93428BB004461746A8
:103F400049D3C36A002B46D000254FF01809AF4271
:103F500001D1002624E05AF82530D4F82CB005937E
:103F600009FB05F8149B5BF8081053F825300693FD
:103F70000BEB0802131D0793099151BB928907327D
:103F8000D2001046089204F039FBDDE9082106460C
:103F900050B94BF80800A0F6BC36204604F0A2F851
:103FA00030460BB0BDE8F08F04F09FFB4BF8086083
:103FB0000296236A059A9B6A0193069B0093A9B215
:103FC000079B204603F0D8FC06460028E5D10135C2
:103FD000BDE7024EE1E7014EE2E700BF40F4FFFF1C
:103FE0002DE9F74F0190482092F819808A4615462E
:103FF0009B4604F003FB044650B108EB4807FF0062
:10400000384604F0FBFA064630B9204604F0EFFAD1
:10401000002003B0BDE8F08F04F110093822002120
:10402000484604F062FB3A460021304604F05DFB4E
:104030000D9AE2600C9AC4F808B0C4E90025E66362
:10404000C4F810A06B686361019BA3620E9BE362DE
:10405000024BC4F8388048462363DAE794900000A6
:1040600010B50446FEF75EFA0348044A012103F046
:104070003FF8204604F00CF9BC8B00007AA0000049
:104080002DE9F843044600AF0D46EFF311882023D5
:1040900083F31288BFF36F8F0428294A98BF294BF6
:1040A0009668117C94BF53F82030274BE9468AB0BC
:1040B0006A462648C2E9073140F201339384244B13
:1040C000C2E9050442F8103F224800234FF4315161
:1040D000FEF70CFBCD4645B1EB69C3F3080323B1F2
:1040E0001D4A1C48012103F003F82EB1304604F0AC
:1040F00012F908B1037803B91848E9468AB06A464C
:10410000174BD061C2E9053640F201331384154BD9
:1041100042F8103F00230F484FF41151FEF7E6FA22
:104120002946CD462046FFF79BFF88F31188BFF351
:104130006F8F3046FFF7ACF8BD46BDE8F88300BF8F
:10414000F0AF0000C090000089A000009FA0000018
:1041500005000001BC8B0000C7A0000097A0000074
:10416000E8A000000400000138B5094B53F82040D6
:10417000013053F82050A54200D838BD636823B100
:10418000204604F08DF80834F5E723689847FAE7ED
:10419000D490000070B52B4B2B4C2C4D012286B0D7
:1041A00003201A70FFF7E0FF00F092FF04F092F88E
:1041B0000420FFF7D9FF2646AE4204F1300410D3A5
:1041C00000F0CEFB204C224EAC4226D300F0DCFBAC
:1041D000FCF746FE1F4A137B23F00103137306B05E
:1041E00070BD54F80C3C059354F8103C049354F8FB
:1041F000143C039354F8183C029354F81C3C01936C
:1042000054F8203C009354E90A2354E90C0100F0CF
:1042100029F954F8303C5E65CDE7D4E90A23B3F1BF
:10422000FF3F08BFB2F1FF3F05D052EA030120680B
:1042300003D100F063FB3034C6E73146183000F09C
:1042400095FDF8E72CB00000548B0000548B000063
:1042500009840000E0AB000008B50348034A0021D0
:10426000121A04F035F808BDD0A5000030B00000E7
:1042700070B5144E144D1549702386B003FB0066CB
:1042800001220023CDE904230F22CDE9023201935C
:10429000142303FB0055044601EB00210C4B009551
:1042A0004FF48072304600F0DDF8737B2C7423F0FD
:1042B00010037373074BEE60013403EBC4236B6090
:1042C00006B070BD70AB0000F0AF000030C300005E
:1042D000D782000030BB0000BFB50020FFF744FFCD
:1042E0002B4B83F308882B4C2B4E63692B4F43F4E5
:1042F000007363610025E02384F82230E57725769A
:104300006576A57684F82050636A43F4E0236362FF
:10431000FEF792FFFFF7AEF84FF0FF33A362E362C0
:104320001F4CFEF771F840F201132046A38100F004
:10433000C9FEB46003F0A0FFFDF71EFF0120FFF7E8
:1043400013FF0220174CFFF70FFF00F06FFB164B17
:1043500074610593012315490095CDE903534FF48A
:1043600080623B46CDE90155204600F07BF8627B38
:10437000064622F010022046627304F008F8284630
:10438000FFF776FF3A4631462046FFF753F800BF65
:1043900030C3000000ED00E0F0AF000095410000E8
:1043A00050AC0000E0AB00004AA1000030C40000A7
:1043B00070B5EFF31186202383F31288BFF36F8F5C
:1043C0000468A0421AD0CCB1D4E9003213605A601C
:1043D000637B002523F002036373C4E90055A560E5
:1043E00004F1180004F068F82046E56603F0CFFFFA
:1043F00031460848BDE8704000F06EBAD0E902329C
:104400009A4218BF0133836086F31188BFF36F8F20
:1044100070BD00BF2DB0000013B5EFF31181202453
:1044200084F31288BFF36F8F846844B1013C8460C9
:1044300081F31188BFF36F8F002002B010BD52EAE4
:10444000030406D181F31188BFF36F8F6FF00F0063
:10445000F3E7CDE900230246014800F011FAECE74A
:104460002DB000002DE9F04784B004AF984600F16C
:104470005803C0E916333B6B0373102343730732B1
:10448000FB6A8373002522F00703EA468EB0C0E979
:10449000065504460E468560C57301EB030904AA60
:1044A000194951611949C2F83090C2E90803C2E9BB
:1044B0000A630923C2E9061642F8103F14482B4646
:1044C0004FF49241FEF712F94946D5462046FEF7D1
:1044D00091FCBB6A02937B6A0193073020F00700CE
:1044E0003B6A0093A9EB000943464A463146204601
:1044F000FEF784FF074B65659B6803B11B6E23665F
:104500004846BD46BDE8F08752A10000A3A10000C7
:10451000BC8B0000F0AF0000F0B587B0002505951A
:10452000109D04950F9D03950E9D0295DDE9127671
:104530000D9D01950C9D00950446FFF793FFB6F184
:10454000FF3F08BFB7F1FF3F05D056EA070305D18B
:10455000204600F0D3F9204607B0F0BD03493A46A3
:10456000334604F1180000F001FCF4E70984000070
:1045700038B590F90D20437B002A014604DA03F098
:104580007F03437303F0C9FE0D4D2A46AB6852F812
:10459000184F944200D004B9EC68994208D05A7B75
:1045A00012F01B0F04D1DA897F2A01D9A2692AB13E
:1045B0009C4202D0204600F03BFB23466B6138BD95
:1045C000F0AF000070B590F90D30427B002B38DB66
:1045D00012F01B0F35D18369002B32D11C4C62F0D5
:1045E0007F024273224652F8181F914218BF0B46B1
:1045F000E16923B9C0E900210860E0610CE090F9AD
:104600000E5093F90E60B5421CD0AE421ADD5968C7
:10461000C0E9003108605860A569954200D005B92D
:10462000E568A3685A7B12F01B0F04D1DA897F2A50
:1046300001D9AA6952B1AB4202D0284600F0F8FA7B
:10464000656170BD9942D5D01B68D2E76361F8E718
:10465000F0AF00002DE9F843002A427B0CBF4FF079
:1046600010094FF0080919EA020F04460F4621D13C
:1046700049EA0203D2092AD14373B9F1080F2CD0B9
:104680004FF00008344E334653F8185F9D4200D077
:1046900005B9F568B368AB4202D0284600F0C8FA05
:1046A000B9F1100F756144D1BFF35F8F637B23F0C5
:1046B00060036373284B9B689C4246D1EFF30583EC
:1046C000002B42D13846BDE8F843FEF7F7BD03F0B2
:1046D0007F03437303F021FECFE7A36813B12046A5
:1046E00003F023FE04F1180003F0E6FEA56D04F1CB
:1046F0005806AE4211D04FF0000875B1284603F0BD
:1047000014FE05F1180003F0D7FEC5F86C802846AA
:10471000FFF758FFA56DAE42EFD10F4B9B689C424F
:10472000AED1EFF30588B8F1000818BF4FF00108CB
:10473000A8E7B8F1000FB7D0084D40F201132846A2
:10474000AB8100F0BFFCB560AEE787F31188BFF323
:104750006F8FBDE8F88300BFF0AF000050AC0000E1
:1047600070B590F90D20437B002A014604DA03F06E
:104770007F03437303F0D1FD4B7B1D4C63F07F033C
:1047800022464B7352F8183FE069934208BF00235A
:1047900023B9C1E900200160E1610CE091F90E50FC
:1047A00093F90E60B5421FD0AE421DDD5868C1E9D5
:1047B000003001605960A569A368954200D005B931
:1047C000E568994208D05A7B12F01B0F04D1DA89B0
:1047D0007F2A01D9AA692AB19D4202D0284600F059
:1047E00027FA2B46636170BD9842D2D01B68CFE791
:1047F000F0AF000070B5214DAA688242044624D172
:10480000EFF305830BBBEFF31186202383F31288AC
:10481000BFF36F8F537B03F07F0343F01003537399
:1048200003F07BFD2B4653F8184F9C4200D004B98F
:10483000EC68AB689C4202D0204600F0F9F96C614C
:104840003046BDE87040FEF739BD04F1180003F0B2
:1048500033FEEFF31181202383F31288BFF36F8FB0
:10486000627B12F0100204D081F31188BFF36F8FC6
:1048700070BD2046BDE87040FFF7ECBEF0AF000011
:10488000F8B5124B0C461146114A98681060DDE9E4
:104890000676EFF31182202282F31288BFF36F8F26
:1048A0009D68284603F04BFDB6F1FF3F08BFB7F106
:1048B000FF3F06D007493A46334605F1180000F09D
:1048C00055FA2046BDE8F840FEF7F8BCF0AF00000E
:1048D00010B000000984000049B9EFF3058030B939
:1048E000054B5A699B689A4201D0FEF7E7BC81F3F9
:1048F0001188BFF36F8F7047F0AF000010B5EFF372
:104900001184202282F31288BFF36F8F427BD1067D
:1049100004D484F31188BFF36F8F10BD22F010020E
:104920004273FFF74FFE21460248BDE81040FFF7F3
:10493000D3BF00BF2DB00000034648B9EFF3058296
:1049400032B9064A51699268914201D0FEF7B6BC6D
:1049500083F31188BFF36F8F704700BFF0AF000083
:10496000EFF31181202383F31288BFF36F8F054B80
:104970009A68D37B013BD37381F31188BFF36F8FA8
:10498000704700BFF0AF0000F8B500AFEFF311863D
:10499000202383F31288BFF36F8F204DAB68DA7B3F
:1049A0000132DA732A4652F8184F944200D004B903
:1049B000EC685A7B12F01B0F04D1DA897F2A01D9E7
:1049C000A2692AB19C4202D0204600F031F9234668
:1049D0006B6186F31188BFF36F8FAB686C468AB04A
:1049E000D97B6A460E4850610E481162C2E906033F
:1049F000052342F8103F0C4800234FF42451FDF7E3
:104A000075FEA546EFF31180202383F31288BFF3D0
:104A10006F8FFFF791FFBD46F8BD00BFF0AF0000FC
:104A2000B6A10000FEA10000BC8B0000024B03F108
:104A30001802C3E906227047F0AF0000F8B5EFF3A3
:104A40001186202383F31288BFF36F8F1D4CA0685B
:104A5000437B03F07F03437303F05FFCA3685A7B3F
:104A6000214662F07F025A7351F8182FE0698A429A
:104A700008BF002222B9C3E900100360E3610CE023
:104A800093F90E5092F90E70BD4217D0AF4215DD6A
:104A90005068C3E9002003605360A5698D4200D0CF
:104AA00005B9E568A3689D4202D0284600F0C0F829
:104AB00065613046BDE8F840FEF700BC8242DAD0BE
:104AC0001268D7E7F0AF00002DE9F843DFF8A080C7
:104AD00000AF6D468AB0D8F8083004460E466A46E4
:104AE0002449516124491062C2E90613052342F8A2
:104AF000103F002321484FF42451FDF7F7FD54EAFD
:104B00000603AD4605D1FFF799FF0020BD46BDE87D
:104B1000F883A31C76F1FF3326DB03F0E2FC2518B3
:104B2000EFF31189202383F31288BFF36F8F144BA7
:104B3000D8F808001860FFF71BFDD8F808001149E5
:104B400022463346183000F011F9D8F80820537B7C
:104B500043F0100353734846FEF7B0FB03F0C1FC6B
:104B6000281A20EAE070D1E76FF001052D1BD7E786
:104B7000F0AF0000D5A10000F1A10000BC8B000047
:104B800010B0000009840000B1F1FF3F08BFB0F190
:104B9000FF3F08B506D10A4B9868FFF72BFE4FF090
:104BA000FF3008BDFFF790FFC11709304FF00A0230
:104BB0004FF0000341F10001FBF77EFCF1E700BF7D
:104BC000F0AF0000014B9868704700BFF0AF0000E5
:104BD000044BC01A044BC0105843044B01221A5412
:104BE000704700BFC0AC0000ABAAAAAA2DB000005D
:104BF000C3897F2B13D80B4B1B686BB10A4B90F901
:104C00000E201B689A420ADB437B13F01B0F06D170
:104C1000064BC31A18BF012303F00100704700239D
:104C2000FAE700BF18B0000014B0000070AB00003D
:104C300070B50E4B0E4C1E7C06EB460304EBC30412
:104C40000546204603F038FC0A4B002228469A55B8
:104C5000FFF7CEFF48B1084B08491A68013A2046D1
:104C6000D317BDE8704000F081B870BDF0AF000010
:104C7000C0AC00002DB0000018B00000D14B000007
:104C800038B5EFF31185202383F31288BFF36F8FBC
:104C9000104B114A9C681068A04206D1FFF7C8FF6C
:104CA00085F31188BFF36F8F38BD00211B7C116025
:104CB0000A4AD35C002BF3D02046FFF799FF002867
:104CC000EED0637B13F01B0F02D12046FFF748FDA7
:104CD0002046E3E7F0AF000010B000002DB0000068
:104CE000034B1B680BB9FEF77FBD0020704700BF68
:104CF0001CB0000030B570B10B4B5B6898420AD015
:104D0000036843B1D3E90421D0E90445121941EB0A
:104D10000501C3E90421D0E9003213605A60002381
:104D2000C0E9003330BD00BF18A3000010B50E4B22
:104D30001C689C4204D1FFF7D3FF6FF0004010BD08
:104D4000FFF7CEFF002CF8D0D4E904321B1A62EB37
:104D5000E072B3F1004F72F10001EEDA002AACBF4D
:104D600018460020EBE700BF18A30000B3F1FF3F97
:104D700008BFB2F1FF3FF8B504461D4616465ED0A7
:104D80008160EFF31187202383F31288BFF36F8FC5
:104D9000013275F1FF3324DA2E49D1E900206FF09A
:104DA00001039B1A4FF0FF3262EB00009E1B60EB89
:104DB0000500012E70F1000301DA01260020C4E98C
:104DC0000460254ED6F800C07568B44508BF4FF0A2
:104DD000000CBCF1000F0DD1C4E900652C607460BB
:104DE0001CE0FFF77DFF013645F10005361845EB65
:104DF000E070E4E7DCE90420D4E90431934271EB8C
:104E0000000E1DDAD21ADCF8043060EB0100CCE9A8
:104E10000420C4E900C31C60CCF804403368B342EA
:104E200009D09C4207D10D4B1C6824B9FFF77EFFC7
:104E30002146FEF75DFC87F31188BFF36F8FF8BD45
:104E40009B1A61EB0001AC45C4E90431C4D0DCF825
:104E500000C0BEE7D8AC000018A300001CB00000E2
:104E60002DE9F84FEFF3118C202383F31288BFF361
:104E70006F8FDFF8B0A0DFF8B0902C4FC9F80000BA
:104E8000DAF800000024504508BF00200025D7E9CB
:104E90000021D9F80030E04678B3D0E9046C4FEA3D
:104EA000E37EB3427EEB0C0B05DAF61A6CEB0E04D4
:104EB000C0E9046421E0B21841EBE671C0E90445A1
:104EC000C7E90021FFF716FF88F31188BFF36F8F42
:104ED00083689847EFF31188202383F31288BFF388
:104EE0006F8FD9F80030DAF800009B1B5045C4469C
:104EF000C9F80030CBD1D7E900219A1841EBE37310
:104F00000024C7E90023C9F80040FFF70FFF21463E
:104F1000FEF7EEFB88F31188BFF36F8FBDE8F84F03
:104F2000FFF7AEBE18A300001CB00000D8AC000014
:104F300010B5EFF31184202383F31288BFF36F8F32
:104F4000FFF7CEFE054A0346D2E90001181841EBEF
:104F5000E37184F31188BFF36F8F10BDD8AC0000EC
:104F6000F8B50446EFF31187202383F31288BFF3CB
:104F70006F8F026822B187F31188BFF36F8FF8BD7E
:104F8000D0E90A36581C46F10001022871F10001EF
:104F900027D3012B76F10001BCBF012316465D1E0D
:104FA00046F1FF3603F0A1FA013041F1000140194A
:104FB00046EB0101012871F1000139DB03F095FA9C
:104FC000013041F100016FF00102401946EB01038D
:104FD000121A4FF0FF3161EB030318492046FFF727
:104FE000C5FE236B01332363236A6BB187F31188FA
:104FF000BFF36F8F236A20469847EFF31187202372
:1050000083F31288BFF36F8F54F8185FA542B2D0B4
:10501000002DB0D0284603F0C9F90023EB6687F3D2
:105020001188BFF36F8F2846BDE8F84003F0AFB991
:105030006FF001024FF0FF33CFE700BF614F000078
:105040002DE9F04105461C4690461F46EFF31186B8
:10505000202383F31288BFF36F8FB4F1FF3F08BFA3
:10506000B2F1FF3F05D186F31188BFF36F8FBDE822
:10507000F081531C74F1FF3309DB012A74F1000342
:10508000BCBF0122002412F1FF3844F1FF3728464B
:1050900003F012FADDE906010023C5E90A012B63DA
:1050A000034942463B462846FFF760FEDBE700BF68
:1050B000614F00000A460146014803F085BA00BF6F
:1050C00068A50000014B0366704700BF68A500009B
:1050D000014801F001BD00BF0DA2000038B5064C2B
:1050E000064DAC4201D3002038BDD4E90112204660
:1050F00003F088FA1434F4E768A500007CA50000EA
:105100000CB430B589B005460C461C22002101A81C
:1051100003F0EBFA02238DF806300E4B029305954F
:1051200023462CB1B4F1004F28BF4FF00043013BA0
:105130001D440DAA0C99069501A8009200F0A8F84C
:1051400014B1059B00221A7009B0BDE8304002B0CE
:10515000704700BF998A00002DE9F04101260746FB
:10516000B24201DCBDE8F0813B461F4613F8014B1B
:10517000002CF7D0252CF8D11C78252C07F102073C
:10518000F2D00023DFF804819C461D461F2D18D85D
:10519000A4F1200EBEF1100F09D9A4F1300EBEF11A
:1051A000090F1ED80A2404FB03E3202504E028FA93
:1051B0000EFE1EF0010F06D017F8014B002CE5D1B2
:1051C00028E07F2D1CD8A4F1300EBEF1090FE9D9DB
:1051D000242C10D1BCF1000F46D0B34246D000239E
:1051E000EAE724F0040EBEF12A0FF8D06C2C09D1A6
:1051F00045F08005E0E724F0040EBEF12A0FEED062
:105200006C2C22D06C2C1BD8682C23D06A2C28D074
:105210004C2C26D0BCF1000FA4D0B445A0D144F052
:105220002007A7F1650CBCF1020F0B6801D9612FB3
:105230001ED1073323F0070308330B6001368EE7D6
:10524000742CB9D07A2CB7D0E4E72C0648BF45F4CB
:105250000075CDE7EC0548BF45F4007545F4807551
:10526000AAE745F42075A7E79C46B8E76324D6E78C
:10527000692C02D007D8632C03D02F0601D5AC05CA
:10528000D7D40433D9E7732CF6E700BF892801008F
:105290002DE9F04F95B043680393837880469807D3
:1052A000CDE9081217D50D920B4600251F78A7B13E
:1052B000252F16D001330793039B41463846984764
:1052C000002805F1010580F2398498F8023043F096
:1052D000040388F802304FF0FF35284615B0BDE8CA
:1052E000F08F5F789A1C252F0792E5D00024264680
:1052F000A246A346BBF11F0F32D8A7F12003102B03
:105300000AD8DFE803F02409092A0909091B090959
:105310000922092709091900A7F13003092B2DD902
:105320002A2F39D154B90D9B1BF0400F53F8042B91
:105330000D9329D0164601E04BF0010B079B13F8A3
:10534000017B0793002FD5D15BE04BF0020B4BF0B4
:10535000040BF3E74BF0080BF0E74BF0100BEDE715
:10536000BBF17F0F3FD8A7F13003092BD8D81BF032
:10537000400F03D00A2202FB0636DFE70A2202FBB7
:105380000A3A4BF0200BD9E7B2F1000AF9DACAF178
:10539000000A4BF0280BD1E72E2F05D11BF0400F50
:1053A0009BD14BF0400BC9E7242F1CD1002C00F0FF
:1053B0004281099B0D931BF0400F0AD15246089879
:1053C0000DA9FFF7C9FE0D9B1A1DD3F800A00D9281
:1053D000B4E7324608980DA9FFF7BEFE0D9B1A1DD3
:1053E0001E680D92AAE76C2F00F0128100F209816D
:1053F000682F00F015816A2F00F01A814C2F00F001
:10540000178134B1099B08980D9322460DA9FFF727
:10541000A3FE002E47F02009B8BF2BF0400BA9F1E6
:105420006503BCBF1FFA8BFB0026022B40F20881EC
:10543000B9F1610F40F06782FF4307F02003069344
:105440000D9B073323F007031BF0400FD3E9000146
:1054500003F1080208BF4FF0FF36069B0D92009340
:105460000EAA334603F084FA0130C3B2B3424BF4C0
:10547000C054049301DB049B5E1E01230E9F059321
:10548000A3464FF0700907F10903122B0DD907F15C
:105490006303C62B40F20F8107F2E73340F2CE726E
:1054A000934294BF0323042305939DF83C2002F00C
:1054B0000C0312F0010240F019811BF0020F40F0C2
:1054C00012811BF0040400F0F880002B40F01181E1
:1054D00020231BF4405F1FD1049A5032002E6A44EF
:1054E00008BF0126133A049921B112F8011D302991
:1054F00000F036811BF0100F049A18BF3246391D98
:10550000C0F23381B74280F23081BA424BF4005B83
:1055100040F32D817E1C961B1BF400520A9200F072
:10552000288127EAE774013403B10134002E00F02A
:105530002881721C1444A245CCBFAAEB04040024A9
:105540001BF0090F04D12C44A54240F01F81002418
:1055500043B118464146039B9847002805F10105D1
:10556000FFF6B3AE1BF4006F13D0039B414630200F
:1055700098470028FFF6A9AE069BC3F17800414684
:10558000039B00F0F8009847002805F10205FFF69C
:105590009CAE1BF0080F05D12C44AC4240F00281B8
:1055A000254600240A9B002B00F01C8127EAE77A9D
:1055B000A7EB0A077642049BBB4284BF0EABFB18E5
:1055C0000AF1FF3A88BF5879039B98BF30205645AF
:1055D00005F10109414600F3EF809847002807F1E3
:1055E0000107FFF672AEBAF1FF3F08D1039B4146B7
:1055F0002E2098470028FFF668AE05F102094D46B7
:10560000D9E7742F3FF49AAE7A2F3FF497AEF8E6BD
:105610001BF0800F18BF4BF4007B4BF0800B8DE626
:105620001BF4807F18BF4BF4007B4BF4807B85E636
:105630004BF4207B82E62646B3465446B2467DE6CE
:10564000FF4307F0200306930D9B073323F0070366
:105650001BF0400F03F1080208BF0626B9F1650FE1
:10566000D3E900010D9213D1731C0022DBB24BF47D
:10567000805B1446112BCDE9002428BF11230EAA0C
:1056800000F0FCFAC3B2049302230E9F0593FAE6DE
:10569000B9F1660F05D14BF4005B344601221123AA
:1056A000E8E7F3B2012B4FF0000238BF01231446A4
:1056B0004FF06509DEE70223F6E6002B3FF409AF61
:1056C000BAF1030F3BDC9DF83C30A64E13F0080FF7
:1056D000A54B08BF1E463746B94617F8010BB0BBAD
:1056E000AE1BB1447BE033BB2B23F2E62BBB2D2357
:1056F000EFE62022BAF1040F13DD1BF0080FAAF128
:1057000004040FD12C44039B049241462020984767
:10571000002805F10105FFF6D8ADA542049AF2D1A3
:105720009AB10024039B414610469847002805F192
:105730000105C8DAC9E52B22DCE72D22DAE71BF0E8
:10574000080FAAF10304BED1DCE71446BBE7069BB1
:10575000C01A4146039BC0B298470028BCDAB4E5A2
:1057600004990139C9B20491BDE6561ED4E600265B
:10577000D2E61BF4006F059A0CBF032405241444E1
:10578000D2E61BF0100F18BF0134D4E60B9341464C
:10579000039B2020984700280B9B05F10105BFF6CD
:1057A000D3AE92E5039B414630209847002805F18F
:1057B0000105BFF6F2AE88E598470028FFF685ADF3
:1057C0001BF0100F0BD0BAF1FF3F08D105F1020911
:1057D00041462E20039B98470028FFF676AD4D46A4
:1057E0004C4433E29DF83D00039B41469847002816
:1057F000FFF66BAD002E69DD039B41462E209847D6
:105800000028FFF662AD4FF0010A049B9A45BBBF2A
:105810000EAB534430205879039B414698470028EB
:10582000D346FFF652AD0AF1010A5645EDDA0235CC
:105830005D44069BA9EB03004146039BC0B2984719
:105840000028FFF642AD002FB4BF2D202B20039B74
:105850004146B8BF7F4298470028FFF636AD059B0A
:10586000042B41D14FF47A79B7FBF9F606F13000F9
:10587000039B4146C0B29847002805F10305FFF697
:1058800024AD09FB16774FF06409B7FBF9F606F172
:105890003000039B4146C0B29847002805F101053E
:1058A000FFF613AD09FB16774FF00A09B7FBF9F6BF
:1058B00006F13000039B4146C0B29847002805F12D
:1058C0000105FFF602AD09FB167715E01BF0100F7E
:1058D00001D10135ADE7039B41462E2098470028B2
:1058E00005F10205A5DAF0E4059B032B05F102059D
:1058F000C9D0059B012BD7D107F1300005F1010973
:105900004146C0B266E7A7F16303122B00F2FF80A5
:10591000DFE813F013005700FD00FD00FD00FD005F
:105920005700FD00FD00FD00FD00FD001701F8001F
:10593000FD00FD002C00FD00B9000D9B1A1D1B6829
:105940000D928DF8383001240EAF1BF0080F2ED0C9
:105950003E19B946B1452CD1EF1BB944AAEB04045A
:105960003DE700BF48A20000149B00000D9B1A1DDC
:105970000D921F68AB4B002F08BF1F461BF0400F56
:1059800014BF31464FF0FF31384602F0C8FE0446DE
:10599000DBE7039B4146202098470028FFF695ACA3
:1059A000013EB442F5D35544AD1BB246D0E756464E
:1059B000F7E719F8010B039B414698470028C9DA1D
:1059C00083E41BF0800F0D9B35D01BF4007F2DD09E
:1059D000073323F00703D3E9000103F108020D9216
:1059E0002BF0100900291FFA89F936DA404261EBE1
:1059F000410149F480690DF1380B0A235A4602F03F
:105A00009AFE19F0400FA0EB0B0B65D029F00102B4
:105A10005E4592B240F3B280002F00F0A98019F0E9
:105A200010033446914626D002345CE01A1D1868F3
:105A30000D92C117D4E71A1D1BF4807F19680D92CF
:105A400001D10846F5E71BF4007F15BF48B208B244
:105A500041F3C01141F3C031C2E750EA0103CAD19A
:105A60001BF0400FC7D0002EC5D12BF0110B1FFA31
:105A70008BF93446B34640F2064319EA03031CBFD0
:105A8000013400232FE02BF0100B1FFA8BFB0A23AD
:105A90001BF080040D9A57D01BF400711DBF073214
:105AA00022F0070202F10801101D19BF0D91D2E981
:105AB00000010D90106850EA010252D12BF0160936
:105AC0001BF0400F1FFA89F94FD0002E4DD12BF05B
:105AD000170B1FFA8BF9B34619F0100352D0002FA1
